{
  "contractName": "Solved",
  "abi": [
    {
      "inputs": [],
      "payable": false,
      "stateMutability": "nonpayable",
      "type": "constructor",
      "signature": "constructor"
    },
    {
      "constant": false,
      "inputs": [
        {
          "name": "solution",
          "type": "string"
        },
        {
          "name": "initial",
          "type": "string"
        },
        {
          "name": "initialempty",
          "type": "uint256"
        }
      ],
      "name": "createPuzzle",
      "outputs": [],
      "payable": false,
      "stateMutability": "nonpayable",
      "type": "function",
      "signature": "0x0864bdb6"
    },
    {
      "constant": true,
      "inputs": [],
      "name": "displayInitialPuzzle",
      "outputs": [
        {
          "name": "",
          "type": "string"
        }
      ],
      "payable": false,
      "stateMutability": "view",
      "type": "function",
      "signature": "0xd35e99cd"
    },
    {
      "constant": true,
      "inputs": [],
      "name": "displaySolvedPuzzle",
      "outputs": [
        {
          "name": "",
          "type": "string"
        }
      ],
      "payable": false,
      "stateMutability": "view",
      "type": "function",
      "signature": "0x902d3dfb"
    },
    {
      "constant": false,
      "inputs": [
        {
          "name": "pos",
          "type": "uint256"
        },
        {
          "name": "x",
          "type": "string"
        }
      ],
      "name": "makeMove",
      "outputs": [
        {
          "name": "",
          "type": "bool"
        }
      ],
      "payable": false,
      "stateMutability": "nonpayable",
      "type": "function",
      "signature": "0x7d20e927"
    },
    {
      "constant": true,
      "inputs": [],
      "name": "checkActiveGame",
      "outputs": [
        {
          "name": "",
          "type": "bool"
        }
      ],
      "payable": false,
      "stateMutability": "view",
      "type": "function",
      "signature": "0x8d10d1c6"
    },
    {
      "constant": false,
      "inputs": [],
      "name": "endGame",
      "outputs": [],
      "payable": false,
      "stateMutability": "nonpayable",
      "type": "function",
      "signature": "0x6cbc2ded"
    }
  ],
  "bytecode": "0x608060405234801561001057600080fd5b50336000806101000a81548173ffffffffffffffffffffffffffffffffffffffff021916908373ffffffffffffffffffffffffffffffffffffffff160217905550610f82806100606000396000f300608060405260043610610078576000357c0100000000000000000000000000000000000000000000000000000000900463ffffffff1680630864bdb61461007d5780636cbc2ded146101365780637d20e9271461014d5780638d10d1c6146101d8578063902d3dfb14610207578063d35e99cd14610297575b600080fd5b34801561008957600080fd5b50610134600480360381019080803590602001908201803590602001908080601f0160208091040260200160405190810160405280939291908181526020018383808284378201915050505050509192919290803590602001908201803590602001908080601f016020809104026020016040519081016040528093929190818152602001838380828437820191505050505050919291929080359060200190929190505050610327565b005b34801561014257600080fd5b5061014b61037c565b005b34801561015957600080fd5b506101be60048036038101908080359060200190929190803590602001908201803590602001908080601f01602080910402602001604051908101604052809392919081815260200183838082843782019150505050505091929192905050506103e7565b604051808215151515815260200191505060405180910390f35b3480156101e457600080fd5b506101ed610808565b604051808215151515815260200191505060405180910390f35b34801561021357600080fd5b5061021c61081f565b6040518080602001828103825283818151815260200191508051906020019080838360005b8381101561025c578082015181840152602081019050610241565b50505050905090810190601f1680156102895780820380516001836020036101000a031916815260200191505b509250505060405180910390f35b3480156102a357600080fd5b506102ac6108c1565b6040518080602001828103825283818151815260200191508051906020019080838360005b838110156102ec5780820151818401526020810190506102d1565b50505050905090810190601f1680156103195780820380516001836020036101000a031916815260200191505b509250505060405180910390f35b826002908051906020019061033d929190610eb1565b508160019080519060200190610354929190610eb1565b50806003819055506001600460006101000a81548160ff021916908315150217905550505050565b6000600460006101000a81548160ff0219169083151502179055506020604051908101604052806000815250600190805190602001906103bd929190610eb1565b506020604051908101604052806000815250600290805190602001906103e4929190610eb1565b50565b6000606061049360028054600181600116156101000203166002900480601f0160208091040260200160405190810160405280929190818152602001828054600181600116156101000203166002900480156104845780601f1061045957610100808354040283529160200191610484565b820191906000526020600020905b81548152906001019060200180831161046757829003601f168201915b50505050508560018701610963565b9050826040516020018082805190602001908083835b6020831015156104ce57805182526020820191506020810190506020830392506104a9565b6001836020036101000a0380198251168184511680821785525050505050509050019150506040516020818303038152906040526040518082805190602001908083835b6020831015156105375780518252602082019150602081019050602083039250610512565b6001836020036101000a038019825116818451168082178552505050505050905001915050604051809103902060001916816040516020018082805190602001908083835b6020831015156105a1578051825260208201915060208101905060208303925061057c565b6001836020036101000a0380198251168184511680821785525050505050509050019150506040516020818303038152906040526040518082805190602001908083835b60208310151561060a57805182526020820191506020810190506020830392506105e5565b6001836020036101000a03801982511681845116808217855250505050505090500191505060405180910390206000191614156107fc5760036000815480929190600190039190505550600060035414156106705761066761037c565b60019150610801565b6107dd61071960018054600181600116156101000203166002900480601f01602080910402602001604051908101604052809291908181526020018280546001816001161561010002031660029004801561070c5780601f106106e15761010080835404028352916020019161070c565b820191906000526020600020905b8154815290600101906020018083116106ef57829003601f168201915b5050505050600087610963565b846107d860018054600181600116156101000203166002900480601f0160208091040260200160405190810160405280929190818152602001828054600181600116156101000203166002900480156107b35780601f10610788576101008083540402835291602001916107b3565b820191906000526020600020905b81548152906001019060200180831161079657829003601f168201915b5050505050600189016001805460018160011615610100020316600290049050610963565b610a64565b600190805190602001906107f2929190610eb1565b5060019150610801565b600091505b5092915050565b6000600460009054906101000a900460ff16905090565b606060028054600181600116156101000203166002900480601f0160208091040260200160405190810160405280929190818152602001828054600181600116156101000203166002900480156108b75780601f1061088c576101008083540402835291602001916108b7565b820191906000526020600020905b81548152906001019060200180831161089a57829003601f168201915b5050505050905090565b606060018054600181600116156101000203166002900480601f0160208091040260200160405190810160405280929190818152602001828054600181600116156101000203166002900480156109595780601f1061092e57610100808354040283529160200191610959565b820191906000526020600020905b81548152906001019060200180831161093c57829003601f168201915b5050505050905090565b606080606060008692508585036040519080825280601f01601f1916602001820160405280156109a25781602001602082028038833980820191505090505b5091508590505b84811015610a575782818151811015156109bf57fe5b9060200101517f010000000000000000000000000000000000000000000000000000000000000090047f01000000000000000000000000000000000000000000000000000000000000000282878303815181101515610a1a57fe5b9060200101907effffffffffffffffffffffffffffffffffffffffffffffffffffffffffffff1916908160001a90535080806001019150506109a9565b8193505050509392505050565b6060610a9384848460206040519081016040528060008152506020604051908101604052806000815250610a9c565b90509392505050565b6060806060806060806060806000808e98508d97508c96508b95508a94508451865188518a518c51010101016040519080825280601f01601f191660200182016040528015610afa5781602001602082028038833980820191505090505b50935083925060009150600090505b8851811015610bbc578881815181101515610b2057fe5b9060200101517f010000000000000000000000000000000000000000000000000000000000000090047f0100000000000000000000000000000000000000000000000000000000000000028383806001019450815181101515610b7f57fe5b9060200101907effffffffffffffffffffffffffffffffffffffffffffffffffffffffffffff1916908160001a9053508080600101915050610b09565b600090505b8751811015610c74578781815181101515610bd857fe5b9060200101517f010000000000000000000000000000000000000000000000000000000000000090047f0100000000000000000000000000000000000000000000000000000000000000028383806001019450815181101515610c3757fe5b9060200101907effffffffffffffffffffffffffffffffffffffffffffffffffffffffffffff1916908160001a9053508080600101915050610bc1565b600090505b8651811015610d2c578681815181101515610c9057fe5b9060200101517f010000000000000000000000000000000000000000000000000000000000000090047f0100000000000000000000000000000000000000000000000000000000000000028383806001019450815181101515610cef57fe5b9060200101907effffffffffffffffffffffffffffffffffffffffffffffffffffffffffffff1916908160001a9053508080600101915050610c79565b600090505b8551811015610de4578581815181101515610d4857fe5b9060200101517f010000000000000000000000000000000000000000000000000000000000000090047f0100000000000000000000000000000000000000000000000000000000000000028383806001019450815181101515610da757fe5b9060200101907effffffffffffffffffffffffffffffffffffffffffffffffffffffffffffff1916908160001a9053508080600101915050610d31565b600090505b8451811015610e9c578481815181101515610e0057fe5b9060200101517f010000000000000000000000000000000000000000000000000000000000000090047f0100000000000000000000000000000000000000000000000000000000000000028383806001019450815181101515610e5f57fe5b9060200101907effffffffffffffffffffffffffffffffffffffffffffffffffffffffffffff1916908160001a9053508080600101915050610de9565b82995050505050505050505095945050505050565b828054600181600116156101000203166002900490600052602060002090601f016020900481019282601f10610ef257805160ff1916838001178555610f20565b82800160010185558215610f20579182015b82811115610f1f578251825591602001919060010190610f04565b5b509050610f2d9190610f31565b5090565b610f5391905b80821115610f4f576000816000905550600101610f37565b5090565b905600a165627a7a7230582073e2ebfa708545765cc4b1ab6fc2ca77627da1a6d6927950857c743f1eb2cacb0029",
  "source": "pragma solidity ^0.4.25;\n\ncontract Solved {\n    // Data Types\n\n    // Remember: simple variables can be viewed with a CALL without having to define a getter function\n\n    address internal creator;\n    // uint256[] initialPuzzle;\n    string initialPuzzle;\n    string solutionPuzzle;\n    // mapping (uint => uint) initialPuzzle;\n    // mapping (uint => uint) solutionPuzzle;\n    // uint256[] solutionPuzzle;\n    uint empty;\n    bool activeGame;\n    //Constructor\n\n    // Set up state variables\n    constructor() public{\n        creator = msg.sender;\n    }\n\n    //functions\n\n    function createPuzzle(string solution, string initial, uint initialempty) public {\n        //set puzzle\n        solutionPuzzle = solution;\n        initialPuzzle = initial;\n        // initialPuzzle = initial;\n        // solutionPuzzle = solution;\n        empty = initialempty;\n        activeGame = true;\n    }\n\n\n    function displayInitialPuzzle() public view returns(string){\n        return initialPuzzle;\n        // uint256[] ret;\n        // for(uint i =0; i<81; i++ ){\n        //     ret[i] = initialPuzzle[i];\n        // }\n        // return ret;\n    }\n\n    function substring(string str, uint startIndex, uint endIndex) private constant returns (string) {\n        bytes memory strBytes = bytes(str);\n        bytes memory result = new bytes(endIndex-startIndex);\n        for(uint i = startIndex; i < endIndex; i++) {\n            result[i-startIndex] = strBytes[i];\n        }\n        return string(result);\n    }\n\n    function displaySolvedPuzzle() public view returns(string){\n        return solutionPuzzle;\n    }\n\n    function makeMove(uint256 pos, string x) public returns(bool){\n        string memory compare = substring(solutionPuzzle, pos, pos+1);\n        if((keccak256(abi.encodePacked(compare))==keccak256(abi.encodePacked(x)))){\n            empty--;\n            if(empty==0){\n                endGame();\n                return true;\n            }\n            initialPuzzle = strConcat(substring(initialPuzzle, 0, pos), x, substring(initialPuzzle, pos+1, bytes(initialPuzzle).length));\n            return true;\n        }\n        return false;\n    }\n\n    function checkActiveGame() view returns(bool){\n        return activeGame;\n    }\n\n    function endGame(){\n        activeGame = false;\n        initialPuzzle = \"\";\n        solutionPuzzle = \"\";\n    }\n\n    function strConcat(string _a, string _b, string _c, string _d, string _e) internal returns (string){ //https://ethereum.stackexchange.com/questions/729/how-to-concatenate-strings-in-solidity\n        bytes memory _ba = bytes(_a);\n        bytes memory _bb = bytes(_b);\n        bytes memory _bc = bytes(_c);\n        bytes memory _bd = bytes(_d);\n        bytes memory _be = bytes(_e);\n        string memory abcde = new string(_ba.length + _bb.length + _bc.length + _bd.length + _be.length);\n        bytes memory babcde = bytes(abcde);\n        uint k = 0;\n        for (uint i = 0; i < _ba.length; i++) babcde[k++] = _ba[i];\n        for (i = 0; i < _bb.length; i++) babcde[k++] = _bb[i];\n        for (i = 0; i < _bc.length; i++) babcde[k++] = _bc[i];\n        for (i = 0; i < _bd.length; i++) babcde[k++] = _bd[i];\n        for (i = 0; i < _be.length; i++) babcde[k++] = _be[i];\n        return string(babcde);\n    }\n\n    function strConcat(string _a, string _b, string _c, string _d) internal returns (string) {\n        return strConcat(_a, _b, _c, _d, \"\");\n    }\n\n    function strConcat(string _a, string _b, string _c) internal returns (string) {\n        return strConcat(_a, _b, _c, \"\", \"\");\n    }\n\n    function strConcat(string _a, string _b) internal returns (string) {\n        return strConcat(_a, _b, \"\", \"\", \"\");\n    }\n\n\n}\n",
  "sourcePath": "/Users/cblack/Desktop/Sudoku/contracts/Solved.sol",
  "compiler": {
    "name": "solc",
    "version": "0.4.25+commit.59dbf8f1.Emscripten.clang"
  },
  "schemaVersion": "3.0.6",
  "updatedAt": "2019-05-03T23:35:00.101Z",
  "devdoc": {
    "methods": {}
  },
  "userdoc": {
    "methods": {}
  }
}