{
  "contractName": "Solved",
  "abi": [
    {
      "constant": true,
      "inputs": [],
      "name": "initialPuzzle",
      "outputs": [
        {
          "name": "",
          "type": "string"
        }
      ],
      "payable": false,
      "stateMutability": "view",
      "type": "function"
    },
    {
      "constant": true,
      "inputs": [],
      "name": "solvedPuzzle",
      "outputs": [
        {
          "name": "",
          "type": "string"
        }
      ],
      "payable": false,
      "stateMutability": "view",
      "type": "function"
    },
    {
      "inputs": [],
      "payable": false,
      "stateMutability": "nonpayable",
      "type": "constructor"
    },
    {
      "constant": false,
      "inputs": [
        {
          "name": "solution",
          "type": "string"
        },
        {
          "name": "initial",
          "type": "string"
        }
      ],
      "name": "createPuzzle",
      "outputs": [],
      "payable": false,
      "stateMutability": "nonpayable",
      "type": "function"
    },
    {
      "constant": true,
      "inputs": [],
      "name": "displayInitialPuzzle",
      "outputs": [
        {
          "name": "",
          "type": "string"
        }
      ],
      "payable": false,
      "stateMutability": "view",
      "type": "function"
    },
    {
      "constant": true,
      "inputs": [],
      "name": "displaySolvedPuzzle",
      "outputs": [
        {
          "name": "",
          "type": "string"
        }
      ],
      "payable": false,
      "stateMutability": "view",
      "type": "function"
    }
  ],
  "bytecode": "0x608060405234801561001057600080fd5b50336000806101000a81548173ffffffffffffffffffffffffffffffffffffffff021916908373ffffffffffffffffffffffffffffffffffffffff1602179055506106ea806100606000396000f30060806040526004361061006d576000357c0100000000000000000000000000000000000000000000000000000000900463ffffffff1680630a0605a414610072578063902d3dfb1461010257806392ca0d0314610192578063b136546114610222578063d35e99cd146102d1575b600080fd5b34801561007e57600080fd5b50610087610361565b6040518080602001828103825283818151815260200191508051906020019080838360005b838110156100c75780820151818401526020810190506100ac565b50505050905090810190601f1680156100f45780820380516001836020036101000a031916815260200191505b509250505060405180910390f35b34801561010e57600080fd5b506101176103ff565b6040518080602001828103825283818151815260200191508051906020019080838360005b8381101561015757808201518184015260208101905061013c565b50505050905090810190601f1680156101845780820380516001836020036101000a031916815260200191505b509250505060405180910390f35b34801561019e57600080fd5b506101a76104a1565b6040518080602001828103825283818151815260200191508051906020019080838360005b838110156101e75780820151818401526020810190506101cc565b50505050905090810190601f1680156102145780820380516001836020036101000a031916815260200191505b509250505060405180910390f35b34801561022e57600080fd5b506102cf600480360381019080803590602001908201803590602001908080601f0160208091040260200160405190810160405280939291908181526020018383808284378201915050505050509192919290803590602001908201803590602001908080601f016020809104026020016040519081016040528093929190818152602001838380828437820191505050505050919291929050505061053f565b005b3480156102dd57600080fd5b506102e6610577565b6040518080602001828103825283818151815260200191508051906020019080838360005b8381101561032657808201518184015260208101905061030b565b50505050905090810190601f1680156103535780820380516001836020036101000a031916815260200191505b509250505060405180910390f35b60018054600181600116156101000203166002900480601f0160208091040260200160405190810160405280929190818152602001828054600181600116156101000203166002900480156103f75780601f106103cc576101008083540402835291602001916103f7565b820191906000526020600020905b8154815290600101906020018083116103da57829003601f168201915b505050505081565b606060028054600181600116156101000203166002900480601f0160208091040260200160405190810160405280929190818152602001828054600181600116156101000203166002900480156104975780601f1061046c57610100808354040283529160200191610497565b820191906000526020600020905b81548152906001019060200180831161047a57829003601f168201915b5050505050905090565b60028054600181600116156101000203166002900480601f0160208091040260200160405190810160405280929190818152602001828054600181600116156101000203166002900480156105375780601f1061050c57610100808354040283529160200191610537565b820191906000526020600020905b81548152906001019060200180831161051a57829003601f168201915b505050505081565b6000339050816001908051906020019061055a929190610619565b508260029080519060200190610571929190610619565b50505050565b606060018054600181600116156101000203166002900480601f01602080910402602001604051908101604052809291908181526020018280546001816001161561010002031660029004801561060f5780601f106105e45761010080835404028352916020019161060f565b820191906000526020600020905b8154815290600101906020018083116105f257829003601f168201915b5050505050905090565b828054600181600116156101000203166002900490600052602060002090601f016020900481019282601f1061065a57805160ff1916838001178555610688565b82800160010185558215610688579182015b8281111561068757825182559160200191906001019061066c565b5b5090506106959190610699565b5090565b6106bb91905b808211156106b757600081600090555060010161069f565b5090565b905600a165627a7a723058203db3db629c028a3730574ffb7aecd3b587fd2c4383093405ab4e83929c4caa910029",
  "source": "pragma solidity ^0.4.25;\n\ncontract Solved {\n    // Data Types\n\n    // Remember: simple variables can be viewed with a CALL without having to define a getter function\n\n    address internal creator;\n    string public initialPuzzle;\n    string public solvedPuzzle;\n    //Constructor\n\n    // Set up state variables\n    constructor() public{\n        creator = msg.sender;\n    }\n\n    //functions\n\n    function createPuzzle(string solution, string initial) public {\n        address _addr = msg.sender;\n        //set puzzle\n        initialPuzzle = initial; //eg. ........7......12.................4..9..3....617...95....3........7.........5..6\n        solvedPuzzle = solution; //eg. 916342758734856912528917643257189364489563271361724895695231487142678539873495126\n    }\n\n\n    function displayInitialPuzzle() public view returns(string){\n        return initialPuzzle;\n    }\n\n    function displaySolvedPuzzle() public view returns(string){\n        return solvedPuzzle;\n    }\n\n\n}\n",
  "sourcePath": "/Users/cblack/Desktop/Sudoku/contracts/Solved.sol",
  "compiler": {
    "name": "solc",
    "version": "0.4.25+commit.59dbf8f1.Emscripten.clang"
  },
  "schemaVersion": "3.0.6",
  "updatedAt": "2019-05-01T20:14:04.236Z",
  "devdoc": {
    "methods": {}
  },
  "userdoc": {
    "methods": {}
  }
}