{
  "contractName": "Solved",
  "abi": [
    {
      "constant": true,
      "inputs": [],
      "name": "initialPuzzle",
      "outputs": [
        {
          "name": "",
          "type": "string"
        }
      ],
      "payable": false,
      "stateMutability": "nonpayable",
      "type": "constructor",
      "signature": "constructor"
    },
    {
      "constant": false,
      "inputs": [
        {
          "name": "solution",
          "type": "uint256[]"
        },
        {
          "name": "initial",
          "type": "uint256[]"
        },
        {
          "name": "initialempty",
          "type": "uint256"
        }
      ],
      "name": "createPuzzle",
      "outputs": [
        {
          "name": "",
          "type": "string"
        }
      ],
      "payable": false,
      "stateMutability": "nonpayable",
      "type": "function",
      "signature": "0xe6c20a4e"
    },
    {
      "inputs": [],
      "payable": false,
      "stateMutability": "view",
      "type": "function",
      "constant": true,
      "name": "displayInitialPuzzle",
      "outputs": [
        {
          "name": "",
          "type": "uint256[]"
        }
      ],
      "signature": "0xd35e99cd"
    },
    {
      "constant": true,
      "inputs": [
        {
          "name": "solution",
          "type": "string"
        },
        {
          "name": "initial",
          "type": "string"
        }
      ],
      "name": "displaySolvedPuzzle",
      "outputs": [
        {
          "name": "",
          "type": "uint256[]"
        }
      ],
      "payable": false,
      "stateMutability": "view",
      "type": "function",
      "signature": "0x0bd4dbfe"
    },
    {
      "constant": false,
      "inputs": [
        {
          "name": "pos",
          "type": "uint256"
        },
        {
          "name": "x",
          "type": "uint256"
        }
      ],
      "name": "makeMove",
      "outputs": [
        {
          "name": "",
          "type": "bool"
        }
      ],
      "payable": false,
      "stateMutability": "nonpayable",
      "type": "function",
      "signature": "0xdea9456d"
    },
    {
      "constant": true,
      "inputs": [],
      "name": "checkActiveGame",
      "outputs": [
        {
          "name": "",
          "type": "bool"
        }
      ],
      "payable": false,
      "stateMutability": "view",
      "type": "function",
      "signature": "0x8d10d1c6"
    },
    {
      "constant": false,
      "inputs": [],
      "name": "endGame",
      "outputs": [],
      "payable": false,
      "stateMutability": "nonpayable",
      "type": "function",
      "signature": "0x6cbc2ded"
    }
  ],
  "bytecode": "0x608060405234801561001057600080fd5b50336000806101000a81548173ffffffffffffffffffffffffffffffffffffffff021916908373ffffffffffffffffffffffffffffffffffffffff160217905550610bbb806100606000396000f300608060405260043610610078576000357c0100000000000000000000000000000000000000000000000000000000900463ffffffff1680636cbc2ded1461007d5780638d10d1c614610094578063902d3dfb146100c3578063d35e99cd1461012f578063dea9456d1461019b578063e6c20a4e146101ea575b600080fd5b34801561008957600080fd5b5061009261029d565b005b3480156100a057600080fd5b506100a9610946565b604051808215151515815260200191505060405180910390f35b3480156100cf57600080fd5b506100d861095d565b6040518080602001828103825283818151815260200191508051906020019060200280838360005b8381101561011b578082015181840152602081019050610100565b505050509050019250505060405180910390f35b34801561013b57600080fd5b506101446109b5565b6040518080602001828103825283818151815260200191508051906020019060200280838360005b8381101561018757808201518184015260208101905061016c565b505050509050019250505060405180910390f35b3480156101a757600080fd5b506101d06004803603810190808035906020019092919080359060200190929190505050610a0d565b604051808215151515815260200191505060405180910390f35b3480156101f657600080fd5b5061029b600480360381019080803590602001908201803590602001908080602002602001604051908101604052809392919081815260200183836020028082843782019150505050505091929192908035906020019082018035906020019080806020026020016040519081016040528093929190818152602001838360200280828437820191505050505050919291929080359060200190929190505050610a76565b005b6000600460006101000a81548160ff021916908315150217905550610a2060405190810160405280600060ff168152602001600060ff168152602001600060ff168152602001600060ff168152602001600060ff168152602001600060ff168152602001600060ff168152602001600060ff168152602001600060ff168152602001600060ff168152602001600060ff168152602001600060ff168152602001600060ff168152602001600060ff168152602001600060ff168152602001600060ff168152602001600060ff168152602001600060ff168152602001600060ff168152602001600060ff168152602001600060ff168152602001600060ff168152602001600060ff168152602001600060ff168152602001600060ff168152602001600060ff168152602001600060ff168152602001600060ff168152602001600060ff168152602001600060ff168152602001600060ff168152602001600060ff168152602001600060ff168152602001600060ff168152602001600060ff168152602001600060ff168152602001600060ff168152602001600060ff168152602001600060ff168152602001600060ff168152602001600060ff168152602001600060ff168152602001600060ff168152602001600060ff168152602001600060ff168152602001600060ff168152602001600060ff168152602001600060ff168152602001600060ff168152602001600060ff168152602001600060ff168152602001600060ff168152602001600060ff168152602001600060ff168152602001600060ff168152602001600060ff168152602001600060ff168152602001600060ff168152602001600060ff168152602001600060ff168152602001600060ff168152602001600060ff168152602001600060ff168152602001600060ff168152602001600060ff168152602001600060ff168152602001600060ff168152602001600060ff168152602001600060ff168152602001600060ff168152602001600060ff168152602001600060ff168152602001600060ff168152602001600060ff168152602001600060ff168152602001600060ff168152602001600060ff168152602001600060ff168152602001600060ff168152602001600060ff168152602001600060ff1681525060019060516105fd929190610acb565b50610a2060405190810160405280600060ff168152602001600060ff168152602001600060ff168152602001600060ff168152602001600060ff168152602001600060ff168152602001600060ff168152602001600060ff168152602001600060ff168152602001600060ff168152602001600060ff168152602001600060ff168152602001600060ff168152602001600060ff168152602001600060ff168152602001600060ff168152602001600060ff168152602001600060ff168152602001600060ff168152602001600060ff168152602001600060ff168152602001600060ff168152602001600060ff168152602001600060ff168152602001600060ff168152602001600060ff168152602001600060ff168152602001600060ff168152602001600060ff168152602001600060ff168152602001600060ff168152602001600060ff168152602001600060ff168152602001600060ff168152602001600060ff168152602001600060ff168152602001600060ff168152602001600060ff168152602001600060ff168152602001600060ff168152602001600060ff168152602001600060ff168152602001600060ff168152602001600060ff168152602001600060ff168152602001600060ff168152602001600060ff168152602001600060ff168152602001600060ff168152602001600060ff168152602001600060ff168152602001600060ff168152602001600060ff168152602001600060ff168152602001600060ff168152602001600060ff168152602001600060ff168152602001600060ff168152602001600060ff168152602001600060ff168152602001600060ff168152602001600060ff168152602001600060ff168152602001600060ff168152602001600060ff168152602001600060ff168152602001600060ff168152602001600060ff168152602001600060ff168152602001600060ff168152602001600060ff168152602001600060ff168152602001600060ff168152602001600060ff168152602001600060ff168152602001600060ff168152602001600060ff168152602001600060ff168152602001600060ff168152602001600060ff168152602001600060ff168152506002906051610943929190610acb565b50565b6000600460009054906101000a900460ff16905090565b606060028054806020026020016040519081016040528092919081815260200182805480156109ab57602002820191906000526020600020905b815481526020019060010190808311610997575b5050505050905090565b60606001805480602002602001604051908101604052809291908181526020018280548015610a0357602002820191906000526020600020905b8154815260200190600101908083116109ef575b5050505050905090565b600081600260018503815481101515610a2257fe5b90600052602060002001541415610a6b576003600081548092919060019003919050555060006003541415610a6257610a5961029d565b60019050610a70565b60019050610a70565b600090505b92915050565b8160019080519060200190610a8c929190610b1d565b508260029080519060200190610aa3929190610b1d565b50806003819055506001600460006101000a81548160ff021916908315150217905550505050565b828054828255906000526020600020908101928215610b0c579160200282015b82811115610b0b578251829060ff16905591602001919060010190610aeb565b5b509050610b199190610b6a565b5090565b828054828255906000526020600020908101928215610b59579160200282015b82811115610b58578251825591602001919060010190610b3d565b5b509050610b669190610b6a565b5090565b610b8c91905b80821115610b88576000816000905550600101610b70565b5090565b905600a165627a7a72305820132ca45839336912b7a7b003af065b56154e076deac7da850000b6cfcbe815230029",
  "source": "pragma solidity ^0.4.25;\n\ncontract Solved {\n    // Data Types\n\n    // Remember: simple variables can be viewed with a CALL without having to define a getter function\n\n    address internal creator;\n    uint256[] initialPuzzle;\n    uint256[] solutionPuzzle;\n    uint empty;\n    bool activeGame;\n    //Constructor\n\n    // Set up state variables\n    constructor() public{\n        creator = msg.sender;\n    }\n\n    //functions\n\n    function createPuzzle(uint256[] solution, uint256[] initial, uint initialempty) public {\n        //set puzzle\n        initialPuzzle = initial;\n        solutionPuzzle = solution;\n        empty = initialempty;\n        activeGame = true;\n    }\n\n\n    function displayInitialPuzzle() public view returns(uint256[]){\n        return initialPuzzle;\n    }\n\n    function displaySolvedPuzzle() public view returns(uint256[]){\n        return solutionPuzzle;\n    }\n\n    function makeMove(uint pos, uint256 x) public returns(bool){\n        if(solutionPuzzle[pos-1] == x){\n            empty--;\n            if(empty==0){\n                endGame();\n                return true;\n            }\n            return true;\n        }\n        return false;\n    }\n\n    function checkActiveGame() view returns(bool){\n        return activeGame;\n    }\n\n    function endGame(){\n        activeGame = false;\n        initialPuzzle = [0,0,0,0,0,0,0,0,0,0,0,0,0,0,0,0,0,0,0,0,0,0,0,0,0,0,0,0,0,0,0,0,0,0,0,0,0,0,0,0,0,0,0,0,0,0,0,0,0,0,0,0,0,0,0,0,0,0,0,0,0,0,0,0,0,0,0,0,0,0,0,0,0,0,0,0,0,0,0,0,0];\n        solutionPuzzle = [0,0,0,0,0,0,0,0,0,0,0,0,0,0,0,0,0,0,0,0,0,0,0,0,0,0,0,0,0,0,0,0,0,0,0,0,0,0,0,0,0,0,0,0,0,0,0,0,0,0,0,0,0,0,0,0,0,0,0,0,0,0,0,0,0,0,0,0,0,0,0,0,0,0,0,0,0,0,0,0,0];\n    }\n\n\n\n\n}\n",
  "sourcePath": "/Users/cblack/Desktop/Sudoku/contracts/Solved.sol",
  "compiler": {
    "name": "solc",
    "version": "0.4.25+commit.59dbf8f1.Emscripten.clang"
  },
  "schemaVersion": "3.0.6",
  "updatedAt": "2019-05-03T22:33:00.877Z",
  "devdoc": {
    "methods": {}
  },
  "userdoc": {
    "methods": {}
  }
}