{
  "contractName": "Sudoku",
  "abi": [
    {
      "inputs": [
        {
          "name": "",
          "type": "address",
          "indexed": false
        },
        {
          "indexed": false,
          "name": "",
          "type": "uint256"
        }
      ],
      "payable": false,
      "stateMutability": "nonpayable",
      "type": "event",
      "anonymous": false,
      "name": "TokenPurchaseEvent",
      "signature": "0x7155008a1e562203473c981a4eee84892808fcdf2c95db8596ffa1129e684b81"
    },
    {
      "anonymous": false,
      "inputs": [
        {
          "indexed": false,
          "name": "",
          "type": "address"
        },
        {
          "indexed": false,
          "name": "",
          "type": "uint256"
        }
      ],
      "name": "TokenWithdrawalEvent",
      "type": "event",
      "signature": "0x3caa64b78984162d213edd76d9ee615035ad45ff3b554e20904e12ee4caec554"
    },
    {
      "anonymous": false,
      "inputs": [
        {
          "indexed": false,
          "name": "",
          "type": "address"
        },
        {
          "indexed": false,
          "name": "",
          "type": "uint256"
        }
      ],
      "name": "ServiceEndEvent",
      "type": "event",
      "signature": "0xbc843831d602279ae650139713af9bdd1a69ea086a76045c32bf3bb51509a28f"
    },
    {
      "anonymous": false,
      "inputs": [
        {
          "indexed": false,
          "name": "",
          "type": "address"
        },
        {
          "indexed": false,
          "name": "",
          "type": "uint256"
        }
      ],
      "name": "buyToken",
      "type": "function",
      "constant": false,
      "outputs": [
        {
          "name": "",
          "type": "bool"
        }
      ],
      "payable": true,
      "stateMutability": "payable",
      "signature": "0x68f8fc10"
    },
    {
      "constant": true,
      "inputs": [],
      "name": "checkToken",
      "outputs": [
        {
          "name": "",
          "type": "uint256"
        }
      ],
      "payable": false,
      "stateMutability": "view",
      "type": "function",
      "signature": "0xcac3e64a"
    },
    {
      "constant": false,
      "inputs": [],
      "name": "withdrawToken",
      "outputs": [
        {
          "name": "",
          "type": "bool"
        }
      ],
      "payable": false,
      "stateMutability": "nonpayable",
      "type": "function",
      "signature": "0xca628c78"
    },
    {
      "constant": false,
      "inputs": [],
      "name": "destructContract",
      "outputs": [
        {
          "name": "",
          "type": "bool"
        }
      ],
      "payable": false,
      "stateMutability": "nonpayable",
      "type": "function",
      "signature": "0x9499e018"
    },
    {
      "constant": false,
      "inputs": [
        {
          "name": "_gameID",
          "type": "uint256"
        },
        {
          "name": "_initialPuzzle",
          "type": "string"
        },
        {
          "name": "_solvedPuzzle",
          "type": "string"
        },
        {
          "name": "_numEmptySpot",
          "type": "uint256"
        }
      ],
      "name": "createSudokuGame",
      "outputs": [
        {
          "name": "",
          "type": "bool"
        }
      ],
      "payable": false,
      "stateMutability": "nonpayable",
      "type": "function",
      "signature": "0x5845fb19"
    },
    {
      "constant": false,
      "inputs": [
        {
          "name": "_gameID",
          "type": "uint256"
        },
        {
          "name": "_initialPuzzle",
          "type": "string"
        },
        {
          "name": "_solvedPuzzle",
          "type": "string"
        },
        {
          "name": "_numEmptySpot",
          "type": "uint256"
        }
      ],
      "name": "startSudokuGame",
      "outputs": [
        {
          "name": "",
          "type": "bool"
        }
      ],
      "payable": false,
      "stateMutability": "nonpayable",
      "type": "function",
      "signature": "0x31f61563"
    },
    {
      "constant": false,
      "inputs": [
        {
          "name": "_gameID",
          "type": "uint256"
        },
        {
          "name": "_token",
          "type": "uint256"
        }
      ],
      "name": "joinSudokuGame",
      "outputs": [
        {
          "name": "",
          "type": "bool"
        }
      ],
      "payable": false,
      "stateMutability": "nonpayable",
      "type": "function",
      "signature": "0xacd5dce5"
    },
    {
      "constant": false,
      "inputs": [
        {
          "name": "_gameID",
          "type": "uint256"
        },
        {
          "name": "_token",
          "type": "uint256"
        }
      ],
      "name": "closeSudokuGame",
      "outputs": [
        {
          "name": "",
          "type": "bool"
        }
      ],
      "payable": false,
      "stateMutability": "nonpayable",
      "type": "function",
      "signature": "0x3ff3de1c"
    },
    {
      "constant": false,
      "inputs": [
        {
          "name": "_pos",
          "type": "uint256"
        },
        {
          "name": "_answer",
          "type": "string"
        }
      ],
      "name": "submitAnswer",
      "outputs": [
        {
          "name": "",
          "type": "bool"
        }
      ],
      "payable": false,
      "stateMutability": "nonpayable",
      "type": "function",
      "signature": "0x01fa3bec"
    },
    {
      "constant": true,
      "inputs": [
        {
          "name": "_pos",
          "type": "uint256"
        },
        {
          "name": "_answer",
          "type": "string"
        }
      ],
      "name": "getCurrentPuzzleStatus",
      "outputs": [
        {
          "name": "",
          "type": "uint256[81]"
        }
      ],
      "payable": false,
      "stateMutability": "view",
      "type": "function",
      "signature": "0x17cf949d"
    },
    {
      "constant": true,
      "inputs": [
        {
          "name": "_gameID",
          "type": "uint256"
        }
      ],
      "name": "isGameOpen",
      "outputs": [
        {
          "name": "",
          "type": "bool"
        }
      ],
      "payable": false,
      "stateMutability": "view",
      "type": "function",
      "signature": "0xec7266ee"
    },
    {
      "constant": true,
      "inputs": [
        {
          "name": "_gameID",
          "type": "uint256"
        }
      ],
      "name": "getTokenPerSpot",
      "outputs": [
        {
          "name": "",
          "type": "uint256"
        }
      ],
      "payable": false,
      "stateMutability": "view",
      "type": "function",
      "signature": "0xaf0cc8d4"
    },
    {
      "constant": true,
      "inputs": [
        {
          "name": "_gameID",
          "type": "uint256"
        }
      ],
      "name": "getGameReward",
      "outputs": [
        {
          "name": "",
          "type": "uint256"
        }
      ],
      "payable": false,
      "stateMutability": "view",
      "type": "function",
      "signature": "0xa408f957"
    },
    {
      "constant": false,
      "inputs": [
        {
          "name": "_gameID",
          "type": "uint256"
        }
      ],
      "name": "getJoinableGames",
      "outputs": [
        {
          "name": "",
          "type": "uint256[]"
        }
      ],
      "payable": false,
      "stateMutability": "nonpayable",
      "type": "function",
      "signature": "0x6cb1f83a"
    },
    {
      "constant": false,
      "inputs": [],
      "name": "getClosedGames",
      "outputs": [
        {
          "name": "",
          "type": "uint256[]"
        }
      ],
      "payable": false,
      "stateMutability": "nonpayable",
      "type": "function",
      "signature": "0x14b558fe"
    },
    {
      "constant": false,
      "inputs": [],
      "name": "getClosedGames",
      "outputs": [
        {
          "name": "",
          "type": "uint256[]"
        }
      ],
      "payable": false,
      "stateMutability": "nonpayable",
      "type": "function",
      "signature": "0x14b558fe"
    }
  ],
  "bytecode": "0x60806040526000600155600a600255662386f26fc1000060035566038d7ea4c68000600455610384600555600060065534801561003b57600080fd5b50612b038061004b6000396000f3006080604052600436106100db576000357c0100000000000000000000000000000000000000000000000000000000900463ffffffff16806301fa3bec146100e05780630e0931291461016b57806314b558fe146101b05780631d1e60801461021c5780635845fb19146102885780636752f2c4146103635780639499e018146103a8578063a408f957146103d7578063a482171914610418578063acd5dce51461043a578063af0cc8d414610489578063ca628c78146104ca578063cac3e64a146104f9578063e48d7b0814610524578063ec7266ee14610577575b600080fd5b3480156100ec57600080fd5b5061015160048036038101908080359060200190929190803590602001908201803590602001908080601f01602080910402602001604051908101604052809392919081815260200183838082843782019150505050505091929192905050506105bc565b604051808215151515815260200191505060405180910390f35b34801561017757600080fd5b5061019660048036038101908080359060200190929190505050610aa5565b604051808215151515815260200191505060405180910390f35b3480156101bc57600080fd5b506101c5610c55565b6040518080602001828103825283818151815260200191508051906020019060200280838360005b838110156102085780820151818401526020810190506101ed565b505050509050019250505060405180910390f35b34801561022857600080fd5b50610231610d44565b6040518080602001828103825283818151815260200191508051906020019060200280838360005b83811015610274578082015181840152602081019050610259565b505050509050019250505060405180910390f35b34801561029457600080fd5b5061034960048036038101908080359060200190929190803590602001908201803590602001908080601f0160208091040260200160405190810160405280939291908181526020018383808284378201915050505050509192919290803590602001908201803590602001908080601f016020809104026020016040519081016040528093929190818152602001838380828437820191505050505050919291929080359060200190929190505050610e82565b604051808215151515815260200191505060405180910390f35b34801561036f57600080fd5b5061038e60048036038101908080359060200190929190505050611178565b604051808215151515815260200191505060405180910390f35b3480156103b457600080fd5b506103bd611b3b565b604051808215151515815260200191505060405180910390f35b3480156103e357600080fd5b5061040260048036038101908080359060200190929190505050611ccc565b6040518082815260200191505060405180910390f35b610420611d49565b604051808215151515815260200191505060405180910390f35b34801561044657600080fd5b5061046f6004803603810190808035906020019092919080359060200190929190505050611eb2565b604051808215151515815260200191505060405180910390f35b34801561049557600080fd5b506104b460048036038101908080359060200190929190505050612242565b6040518082815260200191505060405180910390f35b3480156104d657600080fd5b506104df6122bf565b604051808215151515815260200191505060405180910390f35b34801561050557600080fd5b5061050e612451565b6040518082815260200191505060405180910390f35b34801561053057600080fd5b50610539612498565b6040518082605160200280838360005b83811015610564578082015181840152602081019050610549565b5050505090500191505060405180910390f35b34801561058357600080fd5b506105a26004803603810190808035906020019092919050505061258f565b604051808215151515815260200191505060405180910390f35b6000806060806060600093505b600780549050841015610a9657600860003373ffffffffffffffffffffffffffffffffffffffff1673ffffffffffffffffffffffffffffffffffffffff1681526020019081526020016000205460078581548110151561062557fe5b90600052602060002090605f02016001015414801561066357504260078581548110151561064f57fe5b90600052602060002090605f020160060154115b15610a895761072e60078581548110151561067a57fe5b90600052602060002090605f02016003018054600181600116156101000203166002900480601f01602080910402602001604051908101604052809291908181526020018280546001816001161561010002031660029004801561071f5780601f106106f45761010080835404028352916020019161071f565b820191906000526020600020905b81548152906001019060200180831161070257829003601f168201915b50505050508860018a0161262c565b92508591506107f960078581548110151561074557fe5b90600052602060002090605f02016002018054600181600116156101000203166002900480601f0160208091040260200160405190810160405280929190818152602001828054600181600116156101000203166002900480156107ea5780601f106107bf576101008083540402835291602001916107ea565b820191906000526020600020905b8154815290600101906020018083116107cd57829003601f168201915b50505050508860018a0161262c565b9050816040516020018082805190602001908083835b602083101515610834578051825260208201915060208101905060208303925061080f565b6001836020036101000a0380198251168184511680821785525050505050509050019150506040516020818303038152906040526040518082805190602001908083835b60208310151561089d5780518252602082019150602081019050602083039250610878565b6001836020036101000a038019825116818451168082178552505050505050905001915050604051809103902060001916836040516020018082805190602001908083835b60208310151561090757805182526020820191506020810190506020830392506108e2565b6001836020036101000a0380198251168184511680821785525050505050509050019150506040516020818303038152906040526040518082805190602001908083835b602083101515610970578051825260208201915060208101905060208303925061094b565b6001836020036101000a0380198251168184511680821785525050505050509050019150506040518091039020600019161415610a885760006007858154811015156109b857fe5b90600052602060002090605f0201600d01886051811015156109d657fe5b01541415610a7f5760016007858154811015156109ef57fe5b90600052602060002090605f0201600d0188605181101515610a0d57fe5b01819055506001600785815481101515610a2357fe5b90600052602060002090605f0201600c0160003373ffffffffffffffffffffffffffffffffffffffff1673ffffffffffffffffffffffffffffffffffffffff168152602001908152602001600020600082825401925050819055505b60019450610a9b565b5b83806001019450506105c9565b600094505b5050505092915050565b600080600090505b600780549050811015610c4a573373ffffffffffffffffffffffffffffffffffffffff16600782815481101515610ae057fe5b90600052602060002090605f020160000160009054906101000a900473ffffffffffffffffffffffffffffffffffffffff1673ffffffffffffffffffffffffffffffffffffffff16148015610b54575082600782815481101515610b4057fe5b90600052602060002090605f020160010154145b8015610b7f575042600782815481101515610b6b57fe5b90600052602060002090605f020160050154105b15610c3d576001600782815481101515610b9557fe5b90600052602060002090605f0201600a0160006101000a81548160ff02191690836002811115610bc157fe5b021790555042600782815481101515610bd657fe5b90600052602060002090605f020160040181905550610384600782815481101515610bfd57fe5b90600052602060002090605f02016004015401600782815481101515610c1f57fe5b90600052602060002090605f02016006018190555060019150610c4f565b8080600101915050610aad565b600091505b50919050565b6060600080600090505b600780549050811015610ced5742600782815481101515610c7c57fe5b90600052602060002090605f0201600601541015610ce05781600782815481101515610ca457fe5b90600052602060002090605f02016001015490806001815401808255809150509060018203906000526020600020016000909192909190915055505b8080600101915050610c5f565b81805480602002602001604051908101604052809291908181526020018280548015610d3857602002820191906000526020600020905b815481526020019060010190808311610d24575b50505050509250505090565b6060600080600090505b600780549050811015610e2b5760006002811115610d6857fe5b600782815481101515610d7757fe5b90600052602060002090605f0201600a0160009054906101000a900460ff166002811115610da157fe5b148015610dcd575042600782815481101515610db957fe5b90600052602060002090605f020160050154115b15610e1e5781600782815481101515610de257fe5b90600052602060002090605f02016001015490806001815401808255809150509060018203906000526020600020016000909192909190915055505b8080600101915050610d4e565b81805480602002602001604051908101604052809291908181526020018280548015610e7657602002820191906000526020600020905b815481526020019060010190808311610e62575b50505050509250505090565b6000806000600254600780549050101515610e9c57600080fd5b338260000160006101000a81548173ffffffffffffffffffffffffffffffffffffffff021916908373ffffffffffffffffffffffffffffffffffffffff16021790555086826001018190555085826002019080519060200190610f0092919061272d565b5084826003019080519060200190610f1992919061272d565b50428260040181905550607882600401540182600501819055506103848260040154018260060181905550600082600701819055506000826008018190555060008260090181905550600082600a0160006101000a81548160ff02191690836002811115610f8357fe5b0217905550600082600901819055508382605e0181905550600090505b6051811015610fce57600082600d0182605181101515610fbc57fe5b01819055508080600101915050610fa0565b6007829080600181540180825580915050906001820390600052602060002090605f0201600090919290919091506000820160009054906101000a900473ffffffffffffffffffffffffffffffffffffffff168160000160006101000a81548173ffffffffffffffffffffffffffffffffffffffff021916908373ffffffffffffffffffffffffffffffffffffffff16021790555060018201548160010155600282018160020190805460018160011615610100020316600290046110949291906127ad565b50600382018160030190805460018160011615610100020316600290046110bc9291906127ad565b50600482015481600401556005820154816005015560068201548160060155600782015481600701556008820154816008015560098201548160090155600a820160009054906101000a900460ff1681600a0160006101000a81548160ff0219169083600281111561112a57fe5b0217905550600b820181600b01908054611145929190612834565b50600d820181600d0190605161115c929190612886565b50605e82015481605e0155505050600192505050949350505050565b60008060008060008060008060008060006001600254019950600098505b60078054905089101561184f578b60078a8154811015156111b357fe5b90600052602060002090605f0201600101541480156111f157504260078a8154811015156111dd57fe5b90600052602060002090605f020160060154105b80156112bf57503373ffffffffffffffffffffffffffffffffffffffff1660078a81548110151561121e57fe5b90600052602060002090605f020160000160009054906101000a900473ffffffffffffffffffffffffffffffffffffffff1673ffffffffffffffffffffffffffffffffffffffff1614806112be57506000809054906101000a900473ffffffffffffffffffffffffffffffffffffffff1673ffffffffffffffffffffffffffffffffffffffff163373ffffffffffffffffffffffffffffffffffffffff16145b5b15611842576000965060009550600094505b6007898154811015156112e057fe5b90600052602060002090605f0201600b01805490508510156116ff576000935060078981548110151561130f57fe5b90600052602060002090605f02016009015460078a81548110151561133057fe5b90600052602060002090605f0201600c01600060078c81548110151561135257fe5b90600052602060002090605f0201600b018881548110151561137057fe5b9060005260206000200160009054906101000a900473ffffffffffffffffffffffffffffffffffffffff1673ffffffffffffffffffffffffffffffffffffffff1673ffffffffffffffffffffffffffffffffffffffff1681526020019081526020016000205402840193506007898154811015156113ea57fe5b90600052602060002090605f0201600c01600060078b81548110151561140c57fe5b90600052602060002090605f0201600b018781548110151561142a57fe5b9060005260206000200160009054906101000a900473ffffffffffffffffffffffffffffffffffffffff1673ffffffffffffffffffffffffffffffffffffffff1673ffffffffffffffffffffffffffffffffffffffff1681526020019081526020016000205486019550600060078a8154811015156114a557fe5b90600052602060002090605f0201600c01600060078c8154811015156114c757fe5b90600052602060002090605f0201600b01888154811015156114e557fe5b9060005260206000200160009054906101000a900473ffffffffffffffffffffffffffffffffffffffff1673ffffffffffffffffffffffffffffffffffffffff1673ffffffffffffffffffffffffffffffffffffffff16815260200190815260200160002081905550836009600060078c81548110151561156257fe5b90600052602060002090605f0201600b018881548110151561158057fe5b9060005260206000200160009054906101000a900473ffffffffffffffffffffffffffffffffffffffff1673ffffffffffffffffffffffffffffffffffffffff1673ffffffffffffffffffffffffffffffffffffffff1681526020019081526020016000206000828254019250508190555086841015156116565760078981548110151561160a57fe5b90600052602060002090605f0201600b018581548110151561162857fe5b9060005260206000200160009054906101000a900473ffffffffffffffffffffffffffffffffffffffff1697505b60006008600060078c81548110151561166b57fe5b90600052602060002090605f0201600b018881548110151561168957fe5b9060005260206000200160009054906101000a900473ffffffffffffffffffffffffffffffffffffffff1673ffffffffffffffffffffffffffffffffffffffff1673ffffffffffffffffffffffffffffffffffffffff1681526020019081526020016000208190555084806001019550506112d1565b60078981548110151561170e57fe5b90600052602060002090605f0201600801549250600091505b60518210156117675760078981548110151561173f57fe5b90600052602060002090605f0201600901548660510302830192508180600101925050611727565b60078981548110151561177657fe5b90600052602060002090605f0201605e015486141561180757600060078a8154811015156117a057fe5b90600052602060002090605f02016008018190555082600960008a73ffffffffffffffffffffffffffffffffffffffff1673ffffffffffffffffffffffffffffffffffffffff1681526020019081526020016000206000828254019250508190555061183e565b600060078a81548110151561181857fe5b90600052602060002090605f020160080181905550826006600082825401925050819055505b8899505b8880600101995050611196565b6002548a11156118625760009a50611b2c565b8990505b600160078054905003811015611a2e5760076001820181548110151561188857fe5b90600052602060002090605f02016007828154811015156118a557fe5b90600052602060002090605f02016000820160009054906101000a900473ffffffffffffffffffffffffffffffffffffffff168160000160006101000a81548173ffffffffffffffffffffffffffffffffffffffff021916908373ffffffffffffffffffffffffffffffffffffffff160217905550600182015481600101556002820181600201908054600181600116156101000203166002900461194b9291906127ad565b50600382018160030190805460018160011615610100020316600290046119739291906127ad565b50600482015481600401556005820154816005015560068201548160060155600782015481600701556008820154816008015560098201548160090155600a820160009054906101000a900460ff1681600a0160006101000a81548160ff021916908360028111156119e157fe5b0217905550600b820181600b019080546119fc929190612834565b50600d820181600d01906051611a13929190612886565b50605e82015481605e01559050508080600101915050611866565b6007600160078054905003815481101515611a4557fe5b90600052602060002090605f0201600080820160006101000a81549073ffffffffffffffffffffffffffffffffffffffff02191690556001820160009055600282016000611a9391906128c3565b600382016000611aa391906128c3565b600482016000905560058201600090556006820160009055600782016000905560088201600090556009820160009055600a820160006101000a81549060ff0219169055600b82016000611af7919061290b565b600d82016000611b07919061292c565b605e82016000905550506007805480919060019003611b26919061293f565b5060019a505b50505050505050505050919050565b6000806000809054906101000a900473ffffffffffffffffffffffffffffffffffffffff1673ffffffffffffffffffffffffffffffffffffffff163373ffffffffffffffffffffffffffffffffffffffff16141515611b9957600080fd5b60065490506000809054906101000a900473ffffffffffffffffffffffffffffffffffffffff1673ffffffffffffffffffffffffffffffffffffffff166108fc829081150290604051600060405180830381858888f19350505050158015611c05573d6000803e3d6000fd5b507fbc843831d602279ae650139713af9bdd1a69ea086a76045c32bf3bb51509a28f6000809054906101000a900473ffffffffffffffffffffffffffffffffffffffff1642604051808373ffffffffffffffffffffffffffffffffffffffff1673ffffffffffffffffffffffffffffffffffffffff1681526020018281526020019250505060405180910390a16000809054906101000a900473ffffffffffffffffffffffffffffffffffffffff1673ffffffffffffffffffffffffffffffffffffffff16ff5b600080600090505b600780549050811015611d3e5782600782815481101515611cf157fe5b90600052602060002090605f0201600101541415611d3157600781815481101515611d1857fe5b90600052602060002090605f0201600801549150611d43565b8080600101915050611cd4565b600091505b50919050565b6000662386f26fc100003410151515611d6157600080fd5b6000600960003373ffffffffffffffffffffffffffffffffffffffff1673ffffffffffffffffffffffffffffffffffffffff168152602001908152602001600020541115611dfb5734600960003373ffffffffffffffffffffffffffffffffffffffff1673ffffffffffffffffffffffffffffffffffffffff16815260200190815260200160002060008282540192505081905550611e40565b34600960003373ffffffffffffffffffffffffffffffffffffffff1673ffffffffffffffffffffffffffffffffffffffff168152602001908152602001600020819055505b7f7155008a1e562203473c981a4eee84892808fcdf2c95db8596ffa1129e684b813334604051808373ffffffffffffffffffffffffffffffffffffffff1673ffffffffffffffffffffffffffffffffffffffff1681526020018281526020019250505060405180910390a16001905090565b60008060045483118015611f04575082600960003373ffffffffffffffffffffffffffffffffffffffff1673ffffffffffffffffffffffffffffffffffffffff16815260200190815260200160002054115b1515611f0f57600080fd5b600090505b600780549050811015612236576000600860003373ffffffffffffffffffffffffffffffffffffffff1673ffffffffffffffffffffffffffffffffffffffff16815260200190815260200160002054148015611f8f575083600782815481101515611f7b57fe5b90600052602060002090605f020160010154145b8015611fba575042600782815481101515611fa657fe5b90600052602060002090605f020160050154115b156122295783600860003373ffffffffffffffffffffffffffffffffffffffff1673ffffffffffffffffffffffffffffffffffffffff1681526020019081526020016000208190555082600960003373ffffffffffffffffffffffffffffffffffffffff1673ffffffffffffffffffffffffffffffffffffffff1681526020019081526020016000206000828254039250508190555060078181548110151561205f57fe5b90600052602060002090605f0201600b013390806001815401808255809150509060018203906000526020600020016000909192909190916101000a81548173ffffffffffffffffffffffffffffffffffffffff021916908373ffffffffffffffffffffffffffffffffffffffff1602179055505060006007828154811015156120e557fe5b90600052602060002090605f0201600c0160003373ffffffffffffffffffffffffffffffffffffffff1673ffffffffffffffffffffffffffffffffffffffff168152602001908152602001600020819055508260078281548110151561214757fe5b90600052602060002090605f020160070160008282540192505081905550606460078281548110151561217657fe5b90600052602060002090605f02016007015481151561219157fe5b046007828154811015156121a157fe5b90600052602060002090605f02016009018190555060516007828154811015156121c757fe5b90600052602060002090605f020160090154026007828154811015156121e957fe5b90600052602060002090605f0201600701540360078281548110151561220b57fe5b90600052602060002090605f0201600801819055506001915061223b565b8080600101915050611f14565b600091505b5092915050565b600080600090505b6007805490508110156122b4578260078281548110151561226757fe5b90600052602060002090605f02016001015414156122a75760078181548110151561228e57fe5b90600052602060002090605f02016009015491506122b9565b808060010191505061224a565b600091505b50919050565b6000806000600960003373ffffffffffffffffffffffffffffffffffffffff1673ffffffffffffffffffffffffffffffffffffffff1681526020019081526020016000205411151561231057600080fd5b600960003373ffffffffffffffffffffffffffffffffffffffff1673ffffffffffffffffffffffffffffffffffffffff1681526020019081526020016000205490506000600960003373ffffffffffffffffffffffffffffffffffffffff1673ffffffffffffffffffffffffffffffffffffffff168152602001908152602001600020819055503373ffffffffffffffffffffffffffffffffffffffff166108fc829081150290604051600060405180830381858888f193505050501580156123dd573d6000803e3d6000fd5b507f3caa64b78984162d213edd76d9ee615035ad45ff3b554e20904e12ee4caec5543382604051808373ffffffffffffffffffffffffffffffffffffffff1673ffffffffffffffffffffffffffffffffffffffff1681526020018281526020019250505060405180910390a1600191505090565b6000600960003373ffffffffffffffffffffffffffffffffffffffff1673ffffffffffffffffffffffffffffffffffffffff16815260200190815260200160002054905090565b6124a0612971565b60008090505b60078054905081101561258a57600860003373ffffffffffffffffffffffffffffffffffffffff1673ffffffffffffffffffffffffffffffffffffffff1681526020019081526020016000205460078281548110151561250257fe5b90600052602060002090605f020160010154141561257d5760078181548110151561252957fe5b90600052602060002090605f0201600d01605180602002604051908101604052809291908260518015612571576020028201915b81548152602001906001019080831161255d575b5050505050915061258b565b80806001019150506124a6565b5b5090565b600080600090505b60078054905081101561262157600860003373ffffffffffffffffffffffffffffffffffffffff1673ffffffffffffffffffffffffffffffffffffffff168152602001908152602001600020546007828154811015156125f357fe5b90600052602060002090605f02016001015414156126145760019150612626565b8080600101915050612597565b600091505b50919050565b606080606060008692508585036040519080825280601f01601f19166020018201604052801561266b5781602001602082028038833980820191505090505b5091508590505b8481101561272057828181518110151561268857fe5b9060200101517f010000000000000000000000000000000000000000000000000000000000000090047f010000000000000000000000000000000000000000000000000000000000000002828783038151811015156126e357fe5b9060200101907effffffffffffffffffffffffffffffffffffffffffffffffffffffffffffff1916908160001a9053508080600101915050612672565b8193505050509392505050565b828054600181600116156101000203166002900490600052602060002090601f016020900481019282601f1061276e57805160ff191683800117855561279c565b8280016001018555821561279c579182015b8281111561279b578251825591602001919060010190612780565b5b5090506127a99190612995565b5090565b828054600181600116156101000203166002900490600052602060002090601f016020900481019282601f106127e65780548555612823565b8280016001018555821561282357600052602060002091601f016020900482015b82811115612822578254825591600101919060010190612807565b5b5090506128309190612995565b5090565b8280548282559060005260206000209081019282156128755760005260206000209182015b82811115612874578254825591600101919060010190612859565b5b50905061288291906129ba565b5090565b82605181019282156128b2579182015b828111156128b1578254825591600101919060010190612896565b5b5090506128bf9190612995565b5090565b50805460018160011615610100020316600290046000825580601f106128e95750612908565b601f0160209004906000526020600020908101906129079190612995565b5b50565b50805460008255906000526020600020908101906129299190612995565b50565b50806051019061293c9190612995565b50565b81548183558181111561296c57605f0281605f02836000526020600020918201910161296b91906129fd565b5b505050565b610a2060405190810160405280605190602082028038833980820191505090505090565b6129b791905b808211156129b357600081600090555060010161299b565b5090565b90565b6129fa91905b808211156129f657600081816101000a81549073ffffffffffffffffffffffffffffffffffffffff0219169055506001016129c0565b5090565b90565b612ad491905b80821115612ad057600080820160006101000a81549073ffffffffffffffffffffffffffffffffffffffff02191690556001820160009055600282016000612a4b91906128c3565b600382016000612a5b91906128c3565b600482016000905560058201600090556006820160009055600782016000905560088201600090556009820160009055600a820160006101000a81549060ff0219169055600b82016000612aaf919061290b565b600d82016000612abf919061292c565b605e82016000905550605f01612a03565b5090565b905600a165627a7a72305820c11e2d2ffa593a0d032352c754acf91257943e31fc3bab413a47d2a0860924ce0029",
  "source": "pragma solidity ^0.4.25;\n\n\n/*\n * Basic Workflow:\n * pre. buy tokens (minimum purchase amount = 10 finneys)\n * 1. Create Game\n * 2. Join game (with at least 1 finney), you can join the game until starttime+2mins\n * 3. Owner of the game starts the game, a game can be started after 2 mins of the creation and a player can submit an answer until starttime+15mins\n * 4. After 15 mins of the starting time of a game, an owner or the owner of the contract can close the game\n * 5. closing the game will redistribute the tokens\n * token is distributed to each spot in a sudoku board in a way that\n * each spot -> totalToken / 100 (let's 81*totaltoken/100 is assigned to the board)\n * remaining 19*totaltoken/100 will be rewareded to the winner or the owner of the contract after closing the game\n * if the puzzle is completely solved, remaning tokens will goes to the player with the highest score.\n * if the puzzle is not completely solved, remaining tokens will goes to the owner of the contract.\n * \n * 1 token should be 1 finney, conversion should be done in the client side\n * when joining the game or purchasing some tokens, the number should be a positive integer greater than equal to 1\n * the gameID should be a positive integer greater than equal to 1\n * \n * due to the lack of supports in solidity, we only tracks which spot is solved, and no intermediate puzzle status is maintained (eg. 1,0,0,1,0,0,0, ... ,1,0, 1 is already solved by players while 0 is not)\n * When creating a game, number of empty spots in initial puzzle status should be passed as well so we can figure out if the puzzle is completely solved or not\n *\n * might need to increase the gas limit before you run it on remix\n */\ncontract Sudoku {\n    \n    address internal contract_owner;\n\n    uint private numGames = 0;\n    uint private maxNumGames = 10;\n    uint256 internal minimumPurchase = 10 finney; //minimum amount of token to buy token\n    uint256 internal minimumGameToken = 1 finney; // minimum amount of token to join the game\n    uint256 internal timeLimit = 15 minutes;\n    uint256 internal contract_token = 0;\n\n    SudokuGame[] private openGames;\n    mapping(address => uint) private playerToGame;\n    mapping(address => uint256) private playerToToken;\n    \n    event TokenPurchaseEvent(address, uint256);\n    event TokenWithdrawalEvent(address, uint256);\n    event ServiceEndEvent(address, uint256);\n    \n    enum GameState{\n        CREATED,STARTED,CLOSED\n    }\n    \n    struct SudokuGame{\n        address owner; //owner\n        uint gameID; // must be greater than 0\n        string currentPuzzle; // initial status of puzzle;\n        string solvedPuzzle; // solution of puzzle\n        uint256 startTime; // start time (after startSudokuGame)\n        uint256 joinableTime; // up to 2 minutes after start\n        uint256 endTime; // 15 minutes after start\n        uint256 totalToken; // total amount of token in a game\n        uint256 remainingToken; // remaining token after assign tokens to each spot in sudoku grid\n        uint256 tokenPerSpot;\n        GameState state;\n        address[] players;\n        mapping(address => uint) playersCorrect;\n        uint[81] isSpotSolved; // tracking if the spot is solved or not\n        uint numEmptySpot; // number of empty spots in initial puzzle\n    }\n    \n    /*\n        need to buy in game token first\n        Token needs to be in finney and should be integers (need to be forced and conversion should be done in client side)\n    */\n    function buyToken() payable public returns(bool) {\n        require(msg.value >= 10 finney);\n        if(playerToToken[msg.sender] > 0){\n            playerToToken[msg.sender] += msg.value;   \n        }else{\n            playerToToken[msg.sender] = msg.value;\n        }\n        emit TokenPurchaseEvent(msg.sender,  msg.value);\n        return true;\n    }\n    \n    function checkToken() public view returns(uint256) {\n        return playerToToken[msg.sender];\n    }\n    \n    function withdrawToken() public returns(bool) {\n        require(playerToToken[msg.sender] > 0);\n        uint256 amount;\n        amount = playerToToken[msg.sender];\n        playerToToken[msg.sender] = 0;\n        msg.sender.transfer(amount);\n        emit TokenWithdrawalEvent(msg.sender, amount);\n        return true;\n    }\n    \n    function destructContract() public returns(bool) {\n        require(msg.sender == contract_owner);\n        uint amount;\n        amount = contract_token;\n        contract_owner.transfer(amount);\n        emit ServiceEndEvent(contract_owner, now);\n        selfdestruct(contract_owner);\n        return true;\n    }\n    \n    /*\n        Token needs to be in finney and should be integers (need to be forced and conversion should be done in client side)\n    */\n    function createSudokuGame(uint _gameID, string _initialPuzzle, string _solvedPuzzle, uint _numEmptySpot) public returns(bool) {\n        require(openGames.length<maxNumGames);\n        SudokuGame storage game;\n        game.owner = msg.sender;\n        game.gameID = _gameID;\n        game.currentPuzzle = _initialPuzzle;\n        game.solvedPuzzle = _solvedPuzzle;\n        game.startTime = now;\n        game.joinableTime = game.startTime + 2 minutes;\n        game.endTime = game.startTime + 15 minutes;\n        game.totalToken = 0;\n        game.remainingToken = 0;\n        game.tokenPerSpot = 0;\n        game.state = GameState.CREATED;\n        game.tokenPerSpot = 0;\n        game.numEmptySpot = _numEmptySpot;\n        \n        for (uint i=0; i<81; i++){\n            game.isSpotSolved[i] = 0; // 0 => not solved, 1 => sovled, if number of 1s in this array is equal to numEmptySpot, the puzzle is solved\n        }\n        openGames.push(game);\n        return true;\n    }\n    \n    // after creating the game, you need to start a game after 2 mins\n    function startSudokuGame(uint _gameID) public returns(bool){\n        for (uint i = 0; i < openGames.length; i++){\n            if((openGames[i].owner == msg.sender) && (openGames[i].gameID == _gameID) && openGames[i].joinableTime < now){\n                openGames[i].state = GameState.STARTED;\n                openGames[i].startTime = now;\n                openGames[i].endTime = openGames[i].startTime + 15 minutes;\n                return true;\n            }\n        }\n        return false;\n    }\n    \n    // joining an exisiting game with \n    function joinSudokuGame(uint _gameID, uint256 _token) public returns(bool) {\n        require((_token > minimumGameToken) && (playerToToken[msg.sender]>_token));\n        for (uint i = 0; i < openGames.length; i++){\n            if((playerToGame[msg.sender] == 0) && (openGames[i].gameID == _gameID) && (openGames[i].joinableTime > now)){\n                playerToGame[msg.sender] = _gameID;\n                playerToToken[msg.sender] -= _token;\n                openGames[i].players.push(msg.sender);\n                openGames[i].playersCorrect[msg.sender] = 0;\n                openGames[i].totalToken += _token;\n                openGames[i].tokenPerSpot = openGames[i].totalToken/100; // need to perform safe math in the future\n                openGames[i].remainingToken = openGames[i].totalToken - openGames[i].tokenPerSpot*81;\n                return true;\n            }\n        }\n        return false;\n    }\n    \n    // retrieve all the tokens and assign them to the appropriate owner\n    function closeSudokuGame(uint _gameID) public returns(bool) {\n        uint256 tmpindex = maxNumGames+1;\n        for (uint i = 0; i < openGames.length; i++){\n            if((openGames[i].gameID == _gameID) && (openGames[i].endTime < now) && ((openGames[i].owner == msg.sender) || (msg.sender == contract_owner))){\n                address winner;\n                uint256 winningscore = 0;\n                uint256 numSolved = 0;\n                // give players tokens that are assinged to the spot where they correctly guessed\n                for (uint j = 0; j < openGames[i].players.length; j++){\n                    uint256 sumToken = 0;\n                    sumToken+=openGames[i].playersCorrect[openGames[i].players[j]] * openGames[i].tokenPerSpot;\n                    numSolved += openGames[i].playersCorrect[openGames[i].players[j]];\n                    openGames[i].playersCorrect[openGames[i].players[j]] = 0;\n                    playerToToken[openGames[i].players[j]] += sumToken;\n                    if(sumToken >= winningscore){\n                        winner = openGames[i].players[j]; // try to find a player with max score\n                    }\n                    playerToGame[openGames[i].players[j]] = 0;\n                }\n                uint256 tmpamount = openGames[i].remainingToken;\n                for (uint k = 0; k <81; k++) {\n                    tmpamount += (81-numSolved) * openGames[i].tokenPerSpot; // retrieve tokens assigned to already filled spots\n                }\n                if (numSolved == openGames[i].numEmptySpot) {\n                    // if the game is comepletely solved -> a player with max score takes remainingtoken\n                    openGames[i].remainingToken = 0;\n                    playerToToken[winner] += tmpamount;\n                }else{\n                    // if a puzzle is not solved, contract owner takes the remaining token\n                    openGames[i].remainingToken = 0;\n                    contract_token += tmpamount;\n                }\n                tmpindex = i;\n            }\n        }\n        if (tmpindex > maxNumGames){\n            return false;\n        }else{\n            for (uint n = tmpindex; n < openGames.length-1; n++){\n                openGames[n] = openGames[n+1];\n            }\n            delete openGames[openGames.length-1];\n            openGames.length--;\n            return true;\n        }\n    }\n    \n    function submitAnswer(uint _pos, string _answer) public returns(bool){\n        for (uint i = 0; i < openGames.length; i++){\n            if((openGames[i].gameID == playerToGame[msg.sender]) && (openGames[i].endTime > now)){\n                string memory a = substring(openGames[i].solvedPuzzle, _pos, _pos+1);\n                string memory b = _answer;\n                string memory c = substring(openGames[i].currentPuzzle, _pos, _pos+1);\n                if ((keccak256(abi.encodePacked(a))==keccak256(abi.encodePacked(b)))){\n                    if (openGames[i].isSpotSolved[_pos] == 0){\n                        openGames[i].isSpotSolved[_pos] = 1;\n                        openGames[i].playersCorrect[msg.sender] += 1;\n                    }\n                    return true;\n                }\n            }\n        }\n        \n        return false;\n    }\n    \n    function getCurrentPuzzleStatus() public view returns(uint[81]) {\n        for (uint i = 0; i < openGames.length; i++){\n            if(openGames[i].gameID == playerToGame[msg.sender]){\n                return openGames[i].isSpotSolved;\n            }\n        }\n    }\n    \n    function isGameOpen(uint _gameID) public view returns(bool) {\n        for (uint i = 0; i < openGames.length; i++){\n            if(openGames[i].gameID == playerToGame[msg.sender]){\n                return true;\n            }\n        }\n        return false;\n    }\n    \n    function getTokenPerSpot(uint _gameID) public view returns(uint256) {\n        for (uint i = 0; i < openGames.length; i++){\n            if(openGames[i].gameID == _gameID){\n                return openGames[i].tokenPerSpot;\n            }\n        }\n        return 0;\n    }\n    \n    function getGameReward(uint _gameID) public view returns(uint256) {\n        for (uint i = 0; i < openGames.length; i++){\n            if(openGames[i].gameID == _gameID){\n                return openGames[i].remainingToken;\n            }\n        }\n        return 0;\n    }\n    \n    function getJoinableGames() public returns(uint[]) {\n        uint[] tmplist;\n        for (uint i = 0; i < openGames.length; i++){\n            if((openGames[i].state == GameState.CREATED) && (openGames[i].joinableTime > now)){\n                tmplist.push(openGames[i].gameID);\n            }\n        }\n        return tmplist;\n    }\n    \n    function getClosedGames() public returns(uint[]) {\n        uint[] tmplist;\n        for (uint i = 0; i < openGames.length; i++){\n            if(openGames[i].endTime < now){\n                tmplist.push(openGames[i].gameID);\n            }\n        }\n        return tmplist;\n    }\n    \n    function substring(string str, uint startIndex, uint endIndex) private constant returns (string) {\n        bytes memory strBytes = bytes(str);\n        bytes memory result = new bytes(endIndex-startIndex);\n        for(uint i = startIndex; i < endIndex; i++) {\n            result[i-startIndex] = strBytes[i];\n        }\n        return string(result);\n    }\n}",
  "sourcePath": "/Users/cblack/Desktop/Sudoku/contracts/SudokuMain.sol",
  "compiler": {
    "name": "solc",
    "version": "0.4.25+commit.59dbf8f1.Emscripten.clang"
  },
  "schemaVersion": "3.0.6",
  "updatedAt": "2019-05-03T22:30:53.103Z",
  "devdoc": {
    "methods": {}
  },
  "userdoc": {
    "methods": {}
  }
}